{
  "contractName": "SupplyChain",
  "abi": [
    {
      "constant": true,
      "inputs": [
        {
          "name": "",
          "type": "uint256"
        }
      ],
      "name": "companies",
      "outputs": [
        {
          "name": "id",
          "type": "uint256"
        },
        {
          "name": "addressCompany",
          "type": "address"
        },
        {
          "name": "name",
          "type": "string"
        }
      ],
      "payable": false,
      "stateMutability": "view",
      "type": "function"
    },
    {
      "constant": true,
      "inputs": [],
      "name": "candidatesCount",
      "outputs": [
        {
          "name": "",
          "type": "uint256"
        }
      ],
      "payable": false,
      "stateMutability": "view",
      "type": "function"
    },
    {
      "constant": true,
      "inputs": [
        {
          "name": "",
          "type": "uint256"
        }
      ],
      "name": "candidates",
      "outputs": [
        {
          "name": "id",
          "type": "uint256"
        },
        {
          "name": "name",
          "type": "string"
        },
        {
          "name": "voteCount",
          "type": "uint256"
        }
      ],
      "payable": false,
      "stateMutability": "view",
      "type": "function"
    },
    {
      "constant": true,
      "inputs": [],
      "name": "itemCount",
      "outputs": [
        {
          "name": "",
          "type": "uint256"
        }
      ],
      "payable": false,
      "stateMutability": "view",
      "type": "function"
    },
    {
      "constant": true,
      "inputs": [],
      "name": "companyCount",
      "outputs": [
        {
          "name": "",
          "type": "uint256"
        }
      ],
      "payable": false,
      "stateMutability": "view",
      "type": "function"
    },
    {
      "constant": true,
      "inputs": [
        {
          "name": "",
          "type": "uint256"
        }
      ],
      "name": "transfers",
      "outputs": [
        {
          "name": "id",
          "type": "uint256"
        },
        {
          "name": "itemId",
          "type": "uint256"
        },
        {
          "name": "senderId",
          "type": "address"
        },
        {
          "name": "receiverId",
          "type": "address"
        },
        {
          "name": "isConfirmed",
          "type": "bool"
        }
      ],
      "payable": false,
      "stateMutability": "view",
      "type": "function"
    },
    {
      "constant": true,
      "inputs": [
        {
          "name": "",
          "type": "address"
        }
      ],
      "name": "voters",
      "outputs": [
        {
          "name": "",
          "type": "bool"
        }
      ],
      "payable": false,
      "stateMutability": "view",
      "type": "function"
    },
    {
      "constant": true,
      "inputs": [
        {
          "name": "",
          "type": "uint256"
        }
      ],
      "name": "itemType",
      "outputs": [
        {
          "name": "",
          "type": "string"
        }
      ],
      "payable": false,
      "stateMutability": "view",
      "type": "function"
    },
    {
      "constant": true,
      "inputs": [
        {
          "name": "",
          "type": "uint256"
        }
      ],
      "name": "items",
      "outputs": [
        {
          "name": "id",
          "type": "uint256"
        },
        {
          "name": "itemTypeId",
          "type": "uint256"
        },
        {
          "name": "userId",
          "type": "address"
        },
        {
          "name": "timestamp",
          "type": "uint256"
        },
        {
          "name": "isUsed",
          "type": "bool"
        }
      ],
      "payable": false,
      "stateMutability": "view",
      "type": "function"
    },
    {
      "constant": true,
      "inputs": [],
      "name": "itemTypeCount",
      "outputs": [
        {
          "name": "",
          "type": "uint256"
        }
      ],
      "payable": false,
      "stateMutability": "view",
      "type": "function"
    },
    {
      "constant": true,
      "inputs": [],
      "name": "transferCount",
      "outputs": [
        {
          "name": "",
          "type": "uint256"
        }
      ],
      "payable": false,
      "stateMutability": "view",
      "type": "function"
    },
    {
      "inputs": [],
      "payable": false,
      "stateMutability": "nonpayable",
      "type": "constructor"
    },
    {
      "anonymous": false,
      "inputs": [
        {
          "indexed": true,
          "name": "_candidateId",
          "type": "uint256"
        }
      ],
      "name": "votedEvent",
      "type": "event"
    },
    {
      "constant": false,
      "inputs": [
        {
          "name": "itemTypeId",
          "type": "uint256"
        },
        {
          "name": "_stock",
          "type": "int256"
        }
      ],
      "name": "addItem",
      "outputs": [],
      "payable": false,
      "stateMutability": "nonpayable",
      "type": "function"
    },
    {
      "constant": false,
      "inputs": [
        {
          "name": "itemTypeId",
          "type": "uint256[]"
        },
        {
          "name": "recipe",
          "type": "uint256[]"
        }
      ],
      "name": "createItem",
      "outputs": [],
      "payable": false,
      "stateMutability": "nonpayable",
      "type": "function"
    },
    {
      "constant": false,
      "inputs": [
        {
          "name": "_receiverId",
          "type": "address"
        },
        {
          "name": "_item",
          "type": "uint256"
        }
      ],
      "name": "sendItem",
      "outputs": [],
      "payable": false,
      "stateMutability": "nonpayable",
      "type": "function"
    },
    {
      "constant": false,
      "inputs": [
        {
          "name": "transferId",
          "type": "uint256"
        }
      ],
      "name": "receiveItem",
      "outputs": [],
      "payable": false,
      "stateMutability": "nonpayable",
      "type": "function"
    },
    {
      "constant": true,
      "inputs": [
        {
          "name": "_item",
          "type": "uint256"
        }
      ],
      "name": "getItemNames",
      "outputs": [
        {
          "name": "_name",
          "type": "string"
        }
      ],
      "payable": false,
      "stateMutability": "view",
      "type": "function"
    },
    {
      "constant": false,
      "inputs": [
        {
          "name": "_item",
          "type": "uint256"
        }
      ],
      "name": "traceProduct",
      "outputs": [
        {
          "name": "_recipe",
          "type": "uint256[]"
        },
        {
          "name": "_usedBy",
          "type": "uint256[]"
        }
      ],
      "payable": false,
      "stateMutability": "nonpayable",
      "type": "function"
    },
    {
      "constant": false,
      "inputs": [
        {
          "name": "name",
          "type": "string"
        }
      ],
      "name": "addNewType",
      "outputs": [],
      "payable": false,
      "stateMutability": "nonpayable",
      "type": "function"
    },
    {
      "constant": true,
      "inputs": [],
      "name": "getItemCount",
      "outputs": [
        {
          "name": "_itemCount",
          "type": "uint256"
        }
      ],
      "payable": false,
      "stateMutability": "view",
      "type": "function"
    },
    {
      "constant": false,
      "inputs": [
        {
          "name": "_candidateId",
          "type": "uint256"
        }
      ],
      "name": "vote",
      "outputs": [],
      "payable": false,
      "stateMutability": "nonpayable",
      "type": "function"
    }
  ],
  "bytecode": "0x608060405234801561001057600080fd5b50611c4f806100206000396000f300608060405260043610610112576000357c0100000000000000000000000000000000000000000000000000000000900463ffffffff1680630121b93f14610117578063268c876d146101445780632813d19d146101ad5780632d35a8a21461028d5780633477ee2e146102b85780636bfb0d011461036c57806376987ce6146103975780637749cf23146103ce57806386a8ae68146103f95780638e75dd47146104a25780639377d711146104cd578063a26be99914610586578063a3ec138d146105b3578063ac09aa0f1461060e578063b80d32d9146106b4578063bfb231d214610701578063d1a5d42d1461078e578063d2136c49146107b9578063e3d33fc914610883578063f13b2124146108ae575b600080fd5b34801561012357600080fd5b5061014260048036038101908080359060200190929190505050610954565b005b34801561015057600080fd5b506101ab600480360381019080803590602001908201803590602001908080601f0160208091040260200160405190810160405280939291908181526020018383808284378201915050505050509192919290505050610a20565b005b3480156101b957600080fd5b506101d860048036038101908080359060200190929190505050610a5f565b604051808481526020018373ffffffffffffffffffffffffffffffffffffffff1673ffffffffffffffffffffffffffffffffffffffff16815260200180602001828103825283818151815260200191508051906020019080838360005b83811015610250578082015181840152602081019050610235565b50505050905090810190601f16801561027d5780820380516001836020036101000a031916815260200191505b5094505050505060405180910390f35b34801561029957600080fd5b506102a2610b41565b6040518082815260200191505060405180910390f35b3480156102c457600080fd5b506102e360048036038101908080359060200190929190505050610b47565b6040518084815260200180602001838152602001828103825284818151815260200191508051906020019080838360005b8381101561032f578082015181840152602081019050610314565b50505050905090810190601f16801561035c5780820380516001836020036101000a031916815260200191505b5094505050505060405180910390f35b34801561037857600080fd5b50610381610c09565b6040518082815260200191505060405180910390f35b3480156103a357600080fd5b506103cc6004803603810190808035906020019092919080359060200190929190505050610c0f565b005b3480156103da57600080fd5b506103e3610d9f565b6040518082815260200191505060405180910390f35b34801561040557600080fd5b506104a06004803603810190808035906020019082018035906020019080806020026020016040519081016040528093929190818152602001838360200280828437820191505050505050919291929080359060200190820180359060200190808060200260200160405190810160405280939291908181526020018383602002808284378201915050505050509192919290505050610da9565b005b3480156104ae57600080fd5b506104b7611111565b6040518082815260200191505060405180910390f35b3480156104d957600080fd5b506104f860048036038101908080359060200190929190505050611117565b604051808681526020018581526020018473ffffffffffffffffffffffffffffffffffffffff1673ffffffffffffffffffffffffffffffffffffffff1681526020018373ffffffffffffffffffffffffffffffffffffffff1673ffffffffffffffffffffffffffffffffffffffff168152602001821515151581526020019550505050505060405180910390f35b34801561059257600080fd5b506105b16004803603810190808035906020019092919050505061119a565b005b3480156105bf57600080fd5b506105f4600480360381019080803573ffffffffffffffffffffffffffffffffffffffff169060200190929190505050611581565b604051808215151515815260200191505060405180910390f35b34801561061a57600080fd5b50610639600480360381019080803590602001909291905050506115a1565b6040518080602001828103825283818151815260200191508051906020019080838360005b8381101561067957808201518184015260208101905061065e565b50505050905090810190601f1680156106a65780820380516001836020036101000a031916815260200191505b509250505060405180910390f35b3480156106c057600080fd5b506106ff600480360381019080803573ffffffffffffffffffffffffffffffffffffffff16906020019092919080359060200190929190505050611651565b005b34801561070d57600080fd5b5061072c60048036038101908080359060200190929190505050611866565b604051808681526020018581526020018473ffffffffffffffffffffffffffffffffffffffff1673ffffffffffffffffffffffffffffffffffffffff168152602001838152602001821515151581526020019550505050505060405180910390f35b34801561079a57600080fd5b506107a36118c9565b6040518082815260200191505060405180910390f35b3480156107c557600080fd5b506107e4600480360381019080803590602001909291905050506118cf565b604051808060200180602001838103835285818151815260200191508051906020019060200280838360005b8381101561082b578082015181840152602081019050610810565b50505050905001838103825284818151815260200191508051906020019060200280838360005b8381101561086d578082015181840152602081019050610852565b5050505090500194505050505060405180910390f35b34801561088f57600080fd5b506108986119d1565b6040518082815260200191505060405180910390f35b3480156108ba57600080fd5b506108d9600480360381019080803590602001909291905050506119d7565b6040518080602001828103825283818151815260200191508051906020019080838360005b838110156109195780820151818401526020810190506108fe565b50505050905090810190601f1680156109465780820380516001836020036101000a031916815260200191505b509250505060405180910390f35b600960003373ffffffffffffffffffffffffffffffffffffffff1673ffffffffffffffffffffffffffffffffffffffff16815260200190815260200160002060009054906101000a900460ff161515156109ad57600080fd5b6000811180156109bf5750600b548111155b15156109ca57600080fd5b600a600082815260200190815260200160002060020160008154809291906001019190505550807ffff3c900d938d21d0990d786e819f29b8d05c1ef587b462b939609625b684b1660405160405180910390a250565b600860008154809291906001019190505550806007600060085481526020019081526020016000209080519060200190610a5b929190611ad3565b5050565b60016020528060005260406000206000915090508060000154908060010160009054906101000a900473ffffffffffffffffffffffffffffffffffffffff1690806002018054600181600116156101000203166002900480601f016020809104026020016040519081016040528092919081815260200182805460018160011615610100020316600290048015610b375780601f10610b0c57610100808354040283529160200191610b37565b820191906000526020600020905b815481529060010190602001808311610b1a57829003601f168201915b5050505050905083565b600b5481565b600a602052806000526040600020600091509050806000015490806001018054600181600116156101000203166002900480601f016020809104026020016040519081016040528092919081815260200182805460018160011615610100020316600290048015610bf95780601f10610bce57610100808354040283529160200191610bf9565b820191906000526020600020905b815481529060010190602001808311610bdc57829003601f168201915b5050505050908060020154905083565b60035481565b606080600080429150600090505b84811215610d695760036000815480929190600101919050555060e06040519081016040528060035481526020018781526020013373ffffffffffffffffffffffffffffffffffffffff168152602001858152602001848152602001838152602001600015158152506000806003548152602001908152602001600020600082015181600001556020820151816001015560408201518160020160006101000a81548173ffffffffffffffffffffffffffffffffffffffff021916908373ffffffffffffffffffffffffffffffffffffffff1602179055506060820151816003019080519060200190610d11929190611b53565b506080820151816004019080519060200190610d2e929190611b53565b5060a0820151816005015560c08201518160060160006101000a81548160ff0219169083151502179055509050508080600101915050610c1d565b60007ffff3c900d938d21d0990d786e819f29b8d05c1ef587b462b939609625b684b1660405160405180910390a2505050505050565b6000600354905090565b600080600080606060006001955060009450600093505b8651841015610ea157858015610e4d57503373ffffffffffffffffffffffffffffffffffffffff166000808987815181101515610df957fe5b90602001906020020151815260200190815260200160002060020160009054906101000a900473ffffffffffffffffffffffffffffffffffffffff1673ffffffffffffffffffffffffffffffffffffffff16145b9550848015610e9257506000808886815181101515610e6857fe5b90602001906020020151815260200190815260200160002060060160009054906101000a900460ff165b94508380600101945050610dc0565b858015610eac575084155b1515610eb757600080fd5b600092505b87518310156110d95760036000815480929190600101919050555060e06040519081016040528060035481526020018985815181101515610ef957fe5b9060200190602002015181526020013373ffffffffffffffffffffffffffffffffffffffff168152602001888152602001838152602001428152602001600015158152506000806003548152602001908152602001600020600082015181600001556020820151816001015560408201518160020160006101000a81548173ffffffffffffffffffffffffffffffffffffffff021916908373ffffffffffffffffffffffffffffffffffffffff1602179055506060820151816003019080519060200190610fc8929190611b53565b506080820151816004019080519060200190610fe5929190611b53565b5060a0820151816005015560c08201518160060160006101000a81548160ff021916908315150217905550905050600190505b8651811115156110cc576001600080898481518110151561103557fe5b90602001906020020151815260200190815260200160002060060160006101000a81548160ff021916908315150217905550600080888381518110151561107857fe5b90602001906020020151815260200190815260200160002060040160035490806001815401808255809150509060018203906000526020600020016000909192909190915055508080600101915050611018565b8280600101935050610ebc565b60007ffff3c900d938d21d0990d786e819f29b8d05c1ef587b462b939609625b684b1660405160405180910390a25050505050505050565b60045481565b60026020528060005260406000206000915090508060000154908060010154908060020160009054906101000a900473ffffffffffffffffffffffffffffffffffffffff16908060030160009054906101000a900473ffffffffffffffffffffffffffffffffffffffff16908060030160149054906101000a900460ff16905085565b6111a2611ba0565b6060806002600085815260200190815260200160002060a0604051908101604052908160008201548152602001600182015481526020016002820160009054906101000a900473ffffffffffffffffffffffffffffffffffffffff1673ffffffffffffffffffffffffffffffffffffffff1673ffffffffffffffffffffffffffffffffffffffff1681526020016003820160009054906101000a900473ffffffffffffffffffffffffffffffffffffffff1673ffffffffffffffffffffffffffffffffffffffff1673ffffffffffffffffffffffffffffffffffffffff1681526020016003820160149054906101000a900460ff1615151515815250509250826060015173ffffffffffffffffffffffffffffffffffffffff163373ffffffffffffffffffffffffffffffffffffffff161415156112df57600080fd5b6000808460200151815260200190815260200160002060060160009054906101000a900460ff1615151561131257600080fd5b60036000815480929190600101919050555060e0604051908101604052806003548152602001600080866020015181526020019081526020016000206001015481526020013373ffffffffffffffffffffffffffffffffffffffff168152602001838152602001828152602001428152602001600015158152506000806003548152602001908152602001600020600082015181600001556020820151816001015560408201518160020160006101000a81548173ffffffffffffffffffffffffffffffffffffffff021916908373ffffffffffffffffffffffffffffffffffffffff1602179055506060820151816003019080519060200190611417929190611b53565b506080820151816004019080519060200190611434929190611b53565b5060a0820151816005015560c08201518160060160006101000a81548160ff02191690831515021790555090505060008060035481526020019081526020016000206003018360200151908060018154018082558091505090600182039060005260206000200160009091929091909150555060008084602001518152602001908152602001600020600401600354908060018154018082558091505090600182039060005260206000200160009091929091909150555060016000808560200151815260200190815260200160002060060160006101000a81548160ff02191690831515021790555060016002600086815260200190815260200160002060030160146101000a81548160ff02191690831515021790555060007ffff3c900d938d21d0990d786e819f29b8d05c1ef587b462b939609625b684b1660405160405180910390a250505050565b60096020528060005260406000206000915054906101000a900460ff1681565b60076020528060005260406000206000915090508054600181600116156101000203166002900480601f0160208091040260200160405190810160405280929190818152602001828054600181600116156101000203166002900480156116495780601f1061161e57610100808354040283529160200191611649565b820191906000526020600020905b81548152906001019060200180831161162c57829003601f168201915b505050505081565b60008082815260200190815260200160002060020160009054906101000a900473ffffffffffffffffffffffffffffffffffffffff1673ffffffffffffffffffffffffffffffffffffffff163373ffffffffffffffffffffffffffffffffffffffff161415156116c057600080fd5b60008082815260200190815260200160002060060160009054906101000a900460ff161515156116ef57600080fd5b60056000815480929190600101919050555060a06040519081016040528060055481526020018281526020013373ffffffffffffffffffffffffffffffffffffffff1681526020018373ffffffffffffffffffffffffffffffffffffffff16815260200160001515815250600260006005548152602001908152602001600020600082015181600001556020820151816001015560408201518160020160006101000a81548173ffffffffffffffffffffffffffffffffffffffff021916908373ffffffffffffffffffffffffffffffffffffffff16021790555060608201518160030160006101000a81548173ffffffffffffffffffffffffffffffffffffffff021916908373ffffffffffffffffffffffffffffffffffffffff16021790555060808201518160030160146101000a81548160ff02191690831515021790555090505060007ffff3c900d938d21d0990d786e819f29b8d05c1ef587b462b939609625b684b1660405160405180910390a25050565b60006020528060005260406000206000915090508060000154908060010154908060020160009054906101000a900473ffffffffffffffffffffffffffffffffffffffff16908060050154908060060160009054906101000a900460ff16905085565b60085481565b60608060008084815260200190815260200160002060030180548060200260200160405190810160405280929190818152602001828054801561193157602002820191906000526020600020905b81548152602001906001019080831161191d575b5050505050915060008084815260200190815260200160002060040180548060200260200160405190810160405280929190818152602001828054801561199757602002820191906000526020600020905b815481526020019060010190808311611983575b5050505050905060007ffff3c900d938d21d0990d786e819f29b8d05c1ef587b462b939609625b684b1660405160405180910390a2915091565b60055481565b60606000821415611a1f576040805190810160405280600781526020017f6e6f7468696e67000000000000000000000000000000000000000000000000008152509050611ace565b600760008381526020019081526020016000208054600181600116156101000203166002900480601f016020809104026020016040519081016040528092919081815260200182805460018160011615610100020316600290048015611ac65780601f10611a9b57610100808354040283529160200191611ac6565b820191906000526020600020905b815481529060010190602001808311611aa957829003601f168201915b505050505090505b919050565b828054600181600116156101000203166002900490600052602060002090601f016020900481019282601f10611b1457805160ff1916838001178555611b42565b82800160010185558215611b42579182015b82811115611b41578251825591602001919060010190611b26565b5b509050611b4f9190611bfe565b5090565b828054828255906000526020600020908101928215611b8f579160200282015b82811115611b8e578251825591602001919060010190611b73565b5b509050611b9c9190611bfe565b5090565b60a0604051908101604052806000815260200160008152602001600073ffffffffffffffffffffffffffffffffffffffff168152602001600073ffffffffffffffffffffffffffffffffffffffff1681526020016000151581525090565b611c2091905b80821115611c1c576000816000905550600101611c04565b5090565b905600a165627a7a723058203b6faa4468d31520cc846ab749315558ca0013f75e44fe93c91b321b140fda520029",
  "source": "pragma solidity >=0.4.20;\n\ncontract SupplyChain {\n    // Model a Candidate\n    struct Company {\n        uint id;\n        address addressCompany;\n        string name;\n    }\n\n    struct Candidate {\n        uint id;\n        string name;\n        uint voteCount;\n    }\n\n    struct Item{\n        uint id;\n        uint itemTypeId;\n        address userId;\n        uint[] recipe;\n        uint [] usedBy;\n        uint timestamp;\n        bool isUsed;\n\n    }\n\n    struct Transfer{\n        uint id;\n        uint itemId;\n        address senderId;\n        address receiverId;\n        bool isConfirmed;\n\n    }\n\n    mapping(uint => Item) public items;\n    mapping(uint => Company) public companies;\n    mapping(uint => Transfer) public transfers;\n    uint public itemCount;\n    uint public companyCount;\n    uint public transferCount;\n    uint [][] companyStock; //indeks pertama id company, indeks kedua id itemType\n    \n    mapping(uint => string ) public itemType;\n    uint public itemTypeCount;\n\n\n\n    // buat item yang awal, tanpa recipe\n    function addItem ( uint  itemTypeId, int _stock \n                        ) public {\n        uint[] memory recipe;\n        uint[] memory usedBy;\n        uint timestamp = block.timestamp;\n        for (int i= 0;i< _stock; i++){\n            itemCount++;\n            items[itemCount] = Item(itemCount, itemTypeId, msg.sender, recipe, usedBy , timestamp, false);\n        }\n\n                            \n    \n       emit votedEvent(0);\n    }\n\n    function createItem ( uint [] memory itemTypeId ,uint [] memory recipe\n                        ) public {\n\n        bool isValid = true;  \n        bool _isUsed = false;                 \n        for(uint i=0 ; i< recipe.length ; i++){\n            isValid = isValid && (items[recipe[i]].userId == msg.sender);\n            _isUsed = _isUsed && (items[recipe[i]].isUsed);\n\n        }\n\n        require(isValid && !(_isUsed));   \n\n        for(uint j=0 ; j< itemTypeId.length ; j++){\n            itemCount++;\n            uint [] memory usedBy;\n            items[itemCount] = Item(itemCount, itemTypeId[j], msg.sender, recipe , usedBy , block.timestamp, false);\n            for(uint k=1; k<= recipe.length;k++){\n                items[recipe[k]].isUsed = true;\n                items[recipe[k]].usedBy.push(itemCount);\n            }\n        }\n        emit votedEvent(0);\n    }\n\n    // function addStock(uint _item, int stock) public{\n\n    //     require(msg.sender == items[_item].userId );\n\n    //     items[_item].stock += stock;\n    //     emit votedEvent(0);\n    // }\n\n    function sendItem(address _receiverId, uint _item) public {\n\n        require(msg.sender == items[_item].userId);\n        require( !(items[_item].isUsed));\n\n        transferCount++;\n        transfers[transferCount] = Transfer(transferCount,_item, msg.sender, _receiverId, false);\n        emit votedEvent(0);\n    }\n\n\n    function receiveItem(uint transferId) public {\n        \n        Transfer memory temp = transfers[transferId];\n\n        require(msg.sender == temp.receiverId);\n        require( !(items[temp.itemId].isUsed));\n\n        uint[] memory recipe;\n        uint[] memory usedBy;\n        \n        itemCount++;\n        items[itemCount] = Item(itemCount, items[temp.itemId].itemTypeId, msg.sender, recipe,  usedBy , block.timestamp, false);\n        items[itemCount].recipe.push(temp.itemId);\n\n        items[temp.itemId].usedBy.push(itemCount);\n        items[temp.itemId].isUsed = true;\n\n        transfers[transferId].isConfirmed = true;\n\n        emit votedEvent(0);\n    }\n\n\n    function getItemNames(uint _item) public view returns(string memory _name )  {\n\n        if (_item == 0) {\n            _name = \"nothing\";\n\n        } else {\n            _name =  itemType[_item];\n        }\n        \n    }\n    \n    function traceProduct(uint _item) public  returns( uint [] memory _recipe , uint [] memory _usedBy ) {\n\n        _recipe = items[_item].recipe;\n        _usedBy = items[_item].usedBy;\n        \n        emit votedEvent(0);\n    }\n\n    function addNewType(string memory name) public{\n        itemTypeCount++;\n\n        itemType[itemTypeCount] = name;\n    }\n\n    function getItemCount() public view returns (uint _itemCount){\n        _itemCount = itemCount;\n    }\n    // Store accounts that have voted\n    mapping(address => bool) public voters;\n    // Store Candidates\n    // Fetch Candidate\n    mapping(uint => Candidate) public candidates;\n    // Store Candidates Count\n    uint public candidatesCount;\n\n    // voted event\n    event votedEvent (\n        uint indexed _candidateId\n    );\n\n    constructor () public {\n        \n        // addNewType(\"Sapi\");\n        // addItem(1,1);\n        // addItem(\"kodok\", 2);\n        // addItem(\"sapi\", 2);\n        // addItem(\"ayam\", 2);\n        // addItem2(\"nasi goreng\", 2, 1,2,3);\n        // addItem2(\"nasi bakar\", 2, 4,2,3);\n        // addItem2(\"paket 1\", 2, 4,5,3);\n    }\n\n    function addCandidate (string memory _name) private {\n        candidatesCount ++;\n        candidates[candidatesCount] = Candidate(candidatesCount, _name, 0);\n    }\n\n    function vote (uint _candidateId) public {\n        // require that they haven't voted before\n        require(!voters[msg.sender]);\n\n        // require a valid candidate\n        require(_candidateId > 0 && _candidateId <= candidatesCount);\n\n        // record that voter has voted\n        //voters[msg.sender] = true;\n\n        // update candidate vote Count\n        candidates[_candidateId].voteCount ++;\n\n        // trigger voted event\n        emit votedEvent(_candidateId);\n    }\n}\n",
  "sourcePath": "/Users/RichardMatthew/Documents/TA/Implementasi/Desember Final/fight/Seminar/Seminar 2.0/contracts/SupplyChain.sol",
  "compiler": {
    "name": "solc",
    "version": "0.4.26+commit.4563c3fc.Emscripten.clang"
  },
  "schemaVersion": "2.0.3",
  "updatedAt": "2021-01-14T06:25:19.452Z"
}