{
  "contractName": "Election",
  "abi": [
    {
      "constant": true,
      "inputs": [
        {
          "name": "",
          "type": "uint256"
        }
      ],
      "name": "companies",
      "outputs": [
        {
          "name": "id",
          "type": "uint256"
        },
        {
          "name": "addressCompany",
          "type": "address"
        },
        {
          "name": "name",
          "type": "string"
        }
      ],
      "payable": false,
      "stateMutability": "view",
      "type": "function"
    },
    {
      "constant": true,
      "inputs": [],
      "name": "candidatesCount",
      "outputs": [
        {
          "name": "",
          "type": "uint256"
        }
      ],
      "payable": false,
      "stateMutability": "view",
      "type": "function"
    },
    {
      "constant": true,
      "inputs": [
        {
          "name": "",
          "type": "uint256"
        }
      ],
      "name": "candidates",
      "outputs": [
        {
          "name": "id",
          "type": "uint256"
        },
        {
          "name": "name",
          "type": "string"
        },
        {
          "name": "voteCount",
          "type": "uint256"
        }
      ],
      "payable": false,
      "stateMutability": "view",
      "type": "function"
    },
    {
      "constant": true,
      "inputs": [],
      "name": "itemCount",
      "outputs": [
        {
          "name": "",
          "type": "uint256"
        }
      ],
      "payable": false,
      "stateMutability": "view",
      "type": "function"
    },
    {
      "constant": true,
      "inputs": [],
      "name": "companyCount",
      "outputs": [
        {
          "name": "",
          "type": "uint256"
        }
      ],
      "payable": false,
      "stateMutability": "view",
      "type": "function"
    },
    {
      "constant": true,
      "inputs": [
        {
          "name": "",
          "type": "address"
        }
      ],
      "name": "voters",
      "outputs": [
        {
          "name": "",
          "type": "bool"
        }
      ],
      "payable": false,
      "stateMutability": "view",
      "type": "function"
    },
    {
      "constant": true,
      "inputs": [
        {
          "name": "",
          "type": "uint256"
        }
      ],
      "name": "itemType",
      "outputs": [
        {
          "name": "",
          "type": "string"
        }
      ],
      "payable": false,
      "stateMutability": "view",
      "type": "function"
    },
    {
      "constant": true,
      "inputs": [
        {
          "name": "",
          "type": "uint256"
        }
      ],
      "name": "items",
      "outputs": [
        {
          "name": "id",
          "type": "uint256"
        },
        {
          "name": "itemTypeId",
          "type": "uint256"
        },
        {
          "name": "userId",
          "type": "address"
        },
        {
          "name": "recipe0",
          "type": "uint256"
        },
        {
          "name": "recipe1",
          "type": "uint256"
        },
        {
          "name": "recipe2",
          "type": "uint256"
        },
        {
          "name": "usedBy",
          "type": "uint256"
        },
        {
          "name": "timestamp",
          "type": "uint256"
        },
        {
          "name": "isUsed",
          "type": "bool"
        }
      ],
      "payable": false,
      "stateMutability": "view",
      "type": "function"
    },
    {
      "constant": true,
      "inputs": [],
      "name": "itemTypeCount",
      "outputs": [
        {
          "name": "",
          "type": "uint256"
        }
      ],
      "payable": false,
      "stateMutability": "view",
      "type": "function"
    },
    {
      "inputs": [],
      "payable": false,
      "stateMutability": "nonpayable",
      "type": "constructor"
    },
    {
      "anonymous": false,
      "inputs": [
        {
          "indexed": true,
          "name": "_candidateId",
          "type": "uint256"
        }
      ],
      "name": "votedEvent",
      "type": "event"
    },
    {
      "constant": false,
      "inputs": [
        {
          "name": "itemTypeId",
          "type": "uint256"
        },
        {
          "name": "_stock",
          "type": "int256"
        }
      ],
      "name": "addItem",
      "outputs": [],
      "payable": false,
      "stateMutability": "nonpayable",
      "type": "function"
    },
    {
      "constant": false,
      "inputs": [
        {
          "name": "itemTypeId",
          "type": "uint256"
        },
        {
          "name": "_recipe0",
          "type": "uint256"
        },
        {
          "name": "_recipe1",
          "type": "uint256"
        },
        {
          "name": "_recipe2",
          "type": "uint256"
        }
      ],
      "name": "createItem",
      "outputs": [],
      "payable": false,
      "stateMutability": "nonpayable",
      "type": "function"
    },
    {
      "constant": false,
      "inputs": [
        {
          "name": "_item",
          "type": "uint256"
        }
      ],
      "name": "buyItem",
      "outputs": [],
      "payable": false,
      "stateMutability": "nonpayable",
      "type": "function"
    },
    {
      "constant": true,
      "inputs": [
        {
          "name": "_item",
          "type": "uint256"
        }
      ],
      "name": "getItemType",
      "outputs": [
        {
          "name": "_name",
          "type": "string"
        }
      ],
      "payable": false,
      "stateMutability": "view",
      "type": "function"
    },
    {
      "constant": true,
      "inputs": [
        {
          "name": "_item",
          "type": "uint256"
        }
      ],
      "name": "traceProduct",
      "outputs": [
        {
          "name": "_recipe0",
          "type": "uint256"
        },
        {
          "name": "_recipe1",
          "type": "uint256"
        },
        {
          "name": "_recipe2",
          "type": "uint256"
        },
        {
          "name": "_usedBy",
          "type": "uint256"
        }
      ],
      "payable": false,
      "stateMutability": "view",
      "type": "function"
    },
    {
      "constant": false,
      "inputs": [
        {
          "name": "name",
          "type": "string"
        }
      ],
      "name": "addNewType",
      "outputs": [],
      "payable": false,
      "stateMutability": "nonpayable",
      "type": "function"
    },
    {
      "constant": false,
      "inputs": [
        {
          "name": "_candidateId",
          "type": "uint256"
        }
      ],
      "name": "vote",
      "outputs": [],
      "payable": false,
      "stateMutability": "nonpayable",
      "type": "function"
    }
  ],
  "bytecode": "0x60806040523480156200001157600080fd5b50620000616040805190810160405280600481526020017f536170690000000000000000000000000000000000000000000000000000000081525062000083640100000000026401000000009004565b6200007d600180620000c4640100000000026401000000009004565b620002fa565b600660008154809291906001019190505550806005600060065481526020019081526020016000209080519060200190620000c09291906200024b565b5050565b60008090505b8181121562000218576002600081548092919060010191905055506101206040519081016040528060025481526020018481526020013373ffffffffffffffffffffffffffffffffffffffff16815260200160008152602001600081526020016000815260200160008152602001428152602001600015158152506000806002548152602001908152602001600020600082015181600001556020820151816001015560408201518160020160006101000a81548173ffffffffffffffffffffffffffffffffffffffff021916908373ffffffffffffffffffffffffffffffffffffffff160217905550606082015181600301556080820151816004015560a0820151816005015560c0820151816006015560e082015181600701556101008201518160080160006101000a81548160ff0219169083151502179055509050508080600101915050620000ca565b60007ffff3c900d938d21d0990d786e819f29b8d05c1ef587b462b939609625b684b1660405160405180910390a2505050565b828054600181600116156101000203166002900490600052602060002090601f016020900481019282601f106200028e57805160ff1916838001178555620002bf565b82800160010185558215620002bf579182015b82811115620002be578251825591602001919060010190620002a1565b5b509050620002ce9190620002d2565b5090565b620002f791905b80821115620002f3576000816000905550600101620002d9565b5090565b90565b6114e0806200030a6000396000f3006080604052600436106100e6576000357c0100000000000000000000000000000000000000000000000000000000900463ffffffff1680630121b93f146100eb578063268c876d146101185780632813d19d146101815780632d35a8a2146102615780633477ee2e1461028c5780636bfb0d011461034057806376987ce61461036b5780638e75dd47146103a2578063a3ec138d146103cd578063ac09aa0f14610428578063bfb231d2146104ce578063c19a4ef514610577578063d1a5d42d1461061d578063d2136c4914610648578063e7fb74c71461069e578063eae3d479146106cb575b600080fd5b3480156100f757600080fd5b5061011660048036038101908080359060200190929190505050610716565b005b34801561012457600080fd5b5061017f600480360381019080803590602001908201803590602001908080601f01602080910402602001604051908101604052809392919081815260200183838082843782019150505050505091929192905050506107e2565b005b34801561018d57600080fd5b506101ac60048036038101908080359060200190929190505050610821565b604051808481526020018373ffffffffffffffffffffffffffffffffffffffff1673ffffffffffffffffffffffffffffffffffffffff16815260200180602001828103825283818151815260200191508051906020019080838360005b83811015610224578082015181840152602081019050610209565b50505050905090810190601f1680156102515780820380516001836020036101000a031916815260200191505b5094505050505060405180910390f35b34801561026d57600080fd5b50610276610903565b6040518082815260200191505060405180910390f35b34801561029857600080fd5b506102b760048036038101908080359060200190929190505050610909565b6040518084815260200180602001838152602001828103825284818151815260200191508051906020019080838360005b838110156103035780820151818401526020810190506102e8565b50505050905090810190601f1680156103305780820380516001836020036101000a031916815260200191505b5094505050505060405180910390f35b34801561034c57600080fd5b506103556109cb565b6040518082815260200191505060405180910390f35b34801561037757600080fd5b506103a060048036038101908080359060200190929190803590602001909291905050506109d1565b005b3480156103ae57600080fd5b506103b7610b56565b6040518082815260200191505060405180910390f35b3480156103d957600080fd5b5061040e600480360381019080803573ffffffffffffffffffffffffffffffffffffffff169060200190929190505050610b5c565b604051808215151515815260200191505060405180910390f35b34801561043457600080fd5b5061045360048036038101908080359060200190929190505050610b7c565b6040518080602001828103825283818151815260200191508051906020019080838360005b83811015610493578082015181840152602081019050610478565b50505050905090810190601f1680156104c05780820380516001836020036101000a031916815260200191505b509250505060405180910390f35b3480156104da57600080fd5b506104f960048036038101908080359060200190929190505050610c2c565b604051808a81526020018981526020018873ffffffffffffffffffffffffffffffffffffffff1673ffffffffffffffffffffffffffffffffffffffff16815260200187815260200186815260200185815260200184815260200183815260200182151515158152602001995050505050505050505060405180910390f35b34801561058357600080fd5b506105a260048036038101908080359060200190929190505050610ca7565b6040518080602001828103825283818151815260200191508051906020019080838360005b838110156105e25780820151818401526020810190506105c7565b50505050905090810190601f16801561060f5780820380516001836020036101000a031916815260200191505b509250505060405180910390f35b34801561062957600080fd5b50610632610d5c565b6040518082815260200191505060405180910390f35b34801561065457600080fd5b5061067360048036038101908080359060200190929190505050610d62565b6040518085815260200184815260200183815260200182815260200194505050505060405180910390f35b3480156106aa57600080fd5b506106c960048036038101908080359060200190929190505050610dcf565b005b3480156106d757600080fd5b5061071460048036038101908080359060200190929190803590602001909291908035906020019092919080359060200190929190505050611001565b005b600760003373ffffffffffffffffffffffffffffffffffffffff1673ffffffffffffffffffffffffffffffffffffffff16815260200190815260200160002060009054906101000a900460ff1615151561076f57600080fd5b60008111801561078157506009548111155b151561078c57600080fd5b6008600082815260200190815260200160002060020160008154809291906001019190505550807ffff3c900d938d21d0990d786e819f29b8d05c1ef587b462b939609625b684b1660405160405180910390a250565b60066000815480929190600101919050555080600560006006548152602001908152602001600020908051906020019061081d92919061140f565b5050565b60016020528060005260406000206000915090508060000154908060010160009054906101000a900473ffffffffffffffffffffffffffffffffffffffff1690806002018054600181600116156101000203166002900480601f0160208091040260200160405190810160405280929190818152602001828054600181600116156101000203166002900480156108f95780601f106108ce576101008083540402835291602001916108f9565b820191906000526020600020905b8154815290600101906020018083116108dc57829003601f168201915b5050505050905083565b60095481565b6008602052806000526040600020600091509050806000015490806001018054600181600116156101000203166002900480601f0160208091040260200160405190810160405280929190818152602001828054600181600116156101000203166002900480156109bb5780601f10610990576101008083540402835291602001916109bb565b820191906000526020600020905b81548152906001019060200180831161099e57829003601f168201915b5050505050908060020154905083565b60025481565b60008090505b81811215610b23576002600081548092919060010191905055506101206040519081016040528060025481526020018481526020013373ffffffffffffffffffffffffffffffffffffffff16815260200160008152602001600081526020016000815260200160008152602001428152602001600015158152506000806002548152602001908152602001600020600082015181600001556020820151816001015560408201518160020160006101000a81548173ffffffffffffffffffffffffffffffffffffffff021916908373ffffffffffffffffffffffffffffffffffffffff160217905550606082015181600301556080820151816004015560a0820151816005015560c0820151816006015560e082015181600701556101008201518160080160006101000a81548160ff02191690831515021790555090505080806001019150506109d7565b60007ffff3c900d938d21d0990d786e819f29b8d05c1ef587b462b939609625b684b1660405160405180910390a2505050565b60035481565b60076020528060005260406000206000915054906101000a900460ff1681565b60056020528060005260406000206000915090508054600181600116156101000203166002900480601f016020809104026020016040519081016040528092919081815260200182805460018160011615610100020316600290048015610c245780601f10610bf957610100808354040283529160200191610c24565b820191906000526020600020905b815481529060010190602001808311610c0757829003601f168201915b505050505081565b60006020528060005260406000206000915090508060000154908060010154908060020160009054906101000a900473ffffffffffffffffffffffffffffffffffffffff16908060030154908060040154908060050154908060060154908060070154908060080160009054906101000a900460ff16905089565b6060600560008381526020019081526020016000208054600181600116156101000203166002900480601f016020809104026020016040519081016040528092919081815260200182805460018160011615610100020316600290048015610d505780601f10610d2557610100808354040283529160200191610d50565b820191906000526020600020905b815481529060010190602001808311610d3357829003601f168201915b50505050509050919050565b60065481565b6000806000806000808681526020019081526020016000206003015493506000808681526020019081526020016000206004015492506000808681526020019081526020016000206005015491506000808681526020019081526020016000206006015490509193509193565b60008082815260200190815260200160002060080160009054906101000a900460ff16151515610dfe57600080fd5b6002600081548092919060010191905055506101206040519081016040528060025481526020016000808481526020019081526020016000206001015481526020013373ffffffffffffffffffffffffffffffffffffffff16815260200160008084815260200190815260200160002060030154815260200160008084815260200190815260200160002060040154815260200160008084815260200190815260200160002060050154815260200160008152602001428152602001600015158152506000806002548152602001908152602001600020600082015181600001556020820151816001015560408201518160020160006101000a81548173ffffffffffffffffffffffffffffffffffffffff021916908373ffffffffffffffffffffffffffffffffffffffff160217905550606082015181600301556080820151816004015560a0820151816005015560c0820151816006015560e082015181600701556101008201518160080160006101000a81548160ff02191690831515021790555090505060025460008083815260200190815260200160002060060181905550600160008083815260200190815260200160002060080160006101000a81548160ff02191690831515021790555060007ffff3c900d938d21d0990d786e819f29b8d05c1ef587b462b939609625b684b1660405160405180910390a250565b60008084815260200190815260200160002060020160009054906101000a900473ffffffffffffffffffffffffffffffffffffffff1673ffffffffffffffffffffffffffffffffffffffff163373ffffffffffffffffffffffffffffffffffffffff161480156110d1575060008083815260200190815260200160002060020160009054906101000a900473ffffffffffffffffffffffffffffffffffffffff1673ffffffffffffffffffffffffffffffffffffffff163373ffffffffffffffffffffffffffffffffffffffff16145b801561113d575060008082815260200190815260200160002060020160009054906101000a900473ffffffffffffffffffffffffffffffffffffffff1673ffffffffffffffffffffffffffffffffffffffff163373ffffffffffffffffffffffffffffffffffffffff16145b151561114857600080fd5b60008084815260200190815260200160002060080160009054906101000a900460ff16158015611198575060008083815260200190815260200160002060080160009054906101000a900460ff16155b80156111c4575060008082815260200190815260200160002060080160009054906101000a900460ff16155b15156111cf57600080fd5b6002600081548092919060010191905055506101206040519081016040528060025481526020018581526020013373ffffffffffffffffffffffffffffffffffffffff16815260200184815260200183815260200182815260200160008152602001428152602001600015158152506000806002548152602001908152602001600020600082015181600001556020820151816001015560408201518160020160006101000a81548173ffffffffffffffffffffffffffffffffffffffff021916908373ffffffffffffffffffffffffffffffffffffffff160217905550606082015181600301556080820151816004015560a0820151816005015560c0820151816006015560e082015181600701556101008201518160080160006101000a81548160ff021916908315150217905550905050600160008085815260200190815260200160002060080160006101000a81548160ff021916908315150217905550600160008084815260200190815260200160002060080160006101000a81548160ff021916908315150217905550600160008083815260200190815260200160002060080160006101000a81548160ff02191690831515021790555083600080858152602001908152602001600020600601819055508360008084815260200190815260200160002060060181905550836000808381526020019081526020016000206006018190555060007ffff3c900d938d21d0990d786e819f29b8d05c1ef587b462b939609625b684b1660405160405180910390a250505050565b828054600181600116156101000203166002900490600052602060002090601f016020900481019282601f1061145057805160ff191683800117855561147e565b8280016001018555821561147e579182015b8281111561147d578251825591602001919060010190611462565b5b50905061148b919061148f565b5090565b6114b191905b808211156114ad576000816000905550600101611495565b5090565b905600a165627a7a723058208df6ff0b6dbd2be5c14dfa95a837513b1788024248e07414dd667e3a066cc9c40029",
  "source": "pragma solidity >=0.4.20;\n\ncontract Election {\n    // Model a Candidate\n    struct Company {\n        uint id;\n        address addressCompany;\n        string name;\n    }\n\n    struct Candidate {\n        uint id;\n        string name;\n        uint voteCount;\n    }\n\n    struct Item{\n        uint id;\n        uint itemTypeId;\n        address userId;\n        // uint[3] recipe;\n        uint recipe0;\n        uint recipe1;\n        uint recipe2;\n        uint usedBy;\n        uint256 timestamp;\n        bool isUsed;\n\n    }\n\n    mapping(uint => Item) public items;\n    mapping(uint => Company) public companies;\n    uint public itemCount;\n    uint public companyCount;\n    uint [][] companyStock; //indeks pertama id company, indeks kedua id itemType\n    \n    mapping(uint => string ) public itemType;\n    uint public itemTypeCount;\n\n\n\n    // buat item yang awal, tanpa recipe\n    function addItem ( uint  itemTypeId, int _stock \n                        ) public {\n       \n        for (int i= 0;i< _stock; i++){\n            itemCount++;\n            items[itemCount] = Item(itemCount, itemTypeId, msg.sender, 0, 0, 0 , 0 , block.timestamp, false);\n        }\n\n                            \n    \n       emit votedEvent(0);\n    }\n\n    function createItem ( uint itemTypeId ,uint _recipe0, uint _recipe1, uint _recipe2\n                        ) public {\n        require(msg.sender == items[_recipe0].userId && msg.sender == items[_recipe1].userId && msg.sender == items[_recipe2].userId);   \n        require( !(items[_recipe0].isUsed) && !(items[_recipe1].isUsed) && !(items[_recipe2].isUsed));   \n\n        itemCount++;\n        items[itemCount] = Item(itemCount, itemTypeId, msg.sender, _recipe0 , _recipe1, _recipe2 , 0 , block.timestamp, false);\n\n        items[_recipe0].isUsed = true;\n        items[_recipe1].isUsed = true;\n        items[_recipe2].isUsed = true;\n        items[_recipe0].usedBy = itemTypeId;\n        items[_recipe1].usedBy = itemTypeId;\n        items[_recipe2].usedBy = itemTypeId;\n\n        emit votedEvent(0);\n    }\n\n    // function addStock(uint _item, int stock) public{\n\n    //     require(msg.sender == items[_item].userId );\n\n    //     items[_item].stock += stock;\n    //     emit votedEvent(0);\n    // }\n\n    function buyItem(uint _item) public {\n\n        require( !(items[_item].isUsed));\n\n        itemCount++;\n        items[itemCount] = Item(itemCount, items[_item].itemTypeId, msg.sender, items[_item].recipe0 , items[_item].recipe1, items[_item].recipe2 , 0 , block.timestamp, false);\n        \n        items[_item].usedBy = itemCount;\n        items[_item].isUsed = true;\n\n        emit votedEvent(0);\n    }\n\n\n    function getItemType(uint _item) public view returns(string memory _name )  {\n        _name =  itemType[_item];\n    }\n    function traceProduct(uint _item) public view returns( uint _recipe0 , uint  _recipe1, uint _recipe2, uint _usedBy ) {\n\n        _recipe0 = items[_item].recipe0;\n        _recipe1 = items[_item].recipe1;\n        _recipe2 = items[_item].recipe2;\n        _usedBy = items[_item].usedBy;\n\n    }\n\n    function addNewType(string memory name) public{\n        itemTypeCount++;\n\n        itemType[itemTypeCount] = name;\n    }\n\n    // Store accounts that have voted\n    mapping(address => bool) public voters;\n    // Store Candidates\n    // Fetch Candidate\n    mapping(uint => Candidate) public candidates;\n    // Store Candidates Count\n    uint public candidatesCount;\n\n    // voted event\n    event votedEvent (\n        uint indexed _candidateId\n    );\n\n    constructor () public {\n        \n        addNewType(\"Sapi\");\n        addItem(1,1);\n        // addItem(\"kodok\", 2);\n        // addItem(\"sapi\", 2);\n        // addItem(\"ayam\", 2);\n        // addItem2(\"nasi goreng\", 2, 1,2,3);\n        // addItem2(\"nasi bakar\", 2, 4,2,3);\n        // addItem2(\"paket 1\", 2, 4,5,3);\n    }\n\n    function addCandidate (string memory _name) private {\n        candidatesCount ++;\n        candidates[candidatesCount] = Candidate(candidatesCount, _name, 0);\n    }\n\n    function vote (uint _candidateId) public {\n        // require that they haven't voted before\n        require(!voters[msg.sender]);\n\n        // require a valid candidate\n        require(_candidateId > 0 && _candidateId <= candidatesCount);\n\n        // record that voter has voted\n        //voters[msg.sender] = true;\n\n        // update candidate vote Count\n        candidates[_candidateId].voteCount ++;\n\n        // trigger voted event\n        emit votedEvent(_candidateId);\n    }\n}\n",
  "sourcePath": "/Users/RichardMatthew/Documents/TA/Implementasi/Desember Final/fight/Seminar/Seminar 2.0/contracts/Election.sol",
  "compiler": {
    "name": "solc",
    "version": "0.4.26+commit.4563c3fc.Emscripten.clang"
  },
  "schemaVersion": "2.0.3",
  "updatedAt": "2020-12-31T16:04:43.216Z"
}