{
  "contractName": "SupplyChain",
  "abi": [
    {
      "constant": true,
      "inputs": [
        {
          "name": "",
          "type": "address"
        }
      ],
      "name": "balanceOf",
      "outputs": [
        {
          "name": "",
          "type": "uint256"
        }
      ],
      "payable": false,
      "stateMutability": "view",
      "type": "function"
    },
    {
      "inputs": [],
      "payable": false,
      "stateMutability": "nonpayable",
      "type": "constructor"
    },
    {
      "constant": false,
      "inputs": [
        {
          "name": "depositAmount",
          "type": "uint256"
        }
      ],
      "name": "depositToken",
      "outputs": [],
      "payable": false,
      "stateMutability": "nonpayable",
      "type": "function"
    },
    {
      "constant": true,
      "inputs": [],
      "name": "getBalance",
      "outputs": [
        {
          "name": "_balance",
          "type": "uint256"
        }
      ],
      "payable": false,
      "stateMutability": "view",
      "type": "function"
    },
    {
      "constant": true,
      "inputs": [],
      "name": "getCounter",
      "outputs": [
        {
          "name": "_balance",
          "type": "uint256"
        }
      ],
      "payable": false,
      "stateMutability": "view",
      "type": "function"
    },
    {
      "constant": false,
      "inputs": [
        {
          "name": "_count",
          "type": "uint256"
        }
      ],
      "name": "addCount",
      "outputs": [],
      "payable": false,
      "stateMutability": "nonpayable",
      "type": "function"
    },
    {
      "constant": false,
      "inputs": [
        {
          "name": "withdrawAmmount",
          "type": "uint256"
        }
      ],
      "name": "withdrawToken",
      "outputs": [],
      "payable": false,
      "stateMutability": "nonpayable",
      "type": "function"
    }
  ],
  "bytecode": "0x608060405234801561001057600080fd5b5060008060003373ffffffffffffffffffffffffffffffffffffffff1673ffffffffffffffffffffffffffffffffffffffff1681526020019081526020016000208190555061036c806100646000396000f300608060405260043610610078576000357c0100000000000000000000000000000000000000000000000000000000900463ffffffff16806311b94fd51461007d57806312065fe0146100aa57806350baa622146100d55780636215be771461010257806370a082311461012f5780638ada066e14610186575b600080fd5b34801561008957600080fd5b506100a8600480360381019080803590602001909291905050506101b1565b005b3480156100b657600080fd5b506100bf6101c4565b6040518082815260200191505060405180910390f35b3480156100e157600080fd5b506101006004803603810190808035906020019092919050505061020a565b005b34801561010e57600080fd5b5061012d600480360381019080803590602001909291905050506102b9565b005b34801561013b57600080fd5b50610170600480360381019080803573ffffffffffffffffffffffffffffffffffffffff16906020019092919050505061031e565b6040518082815260200191505060405180910390f35b34801561019257600080fd5b5061019b610336565b6040518082815260200191505060405180910390f35b8060016000828254019250508190555050565b60008060003373ffffffffffffffffffffffffffffffffffffffff1673ffffffffffffffffffffffffffffffffffffffff16815260200190815260200160002054905090565b600a60015411151561021b57600080fd5b6000816000803373ffffffffffffffffffffffffffffffffffffffff1673ffffffffffffffffffffffffffffffffffffffff168152602001908152602001600020540311151561026a57600080fd5b806000803373ffffffffffffffffffffffffffffffffffffffff1673ffffffffffffffffffffffffffffffffffffffff1681526020019081526020016000206000828254039250508190555050565b6000600190508082101515156102ce57600080fd5b816000803373ffffffffffffffffffffffffffffffffffffffff1673ffffffffffffffffffffffffffffffffffffffff168152602001908152602001600020600082825401925050819055505050565b60006020528060005260406000206000915090505481565b60006001549050905600a165627a7a72305820ed03b20109f3445597a37d9c243fe746ee2befa9b2cb6c1390bf20f440deb0eb0029",
  "source": "pragma solidity >=0.4.20;\n\ncontract SupplyChain {\n    // Model a Candidate\n    // 0.1 equal to 1 in data\n    \n\n    /* This creates an array with all balances */\n    mapping (address => uint256) public balanceOf;\n    uint256 counter;\n    \n    function depositToken(uint256 depositAmount) public {\n        uint256 minimumDeposit = 1;\n        require(depositAmount >=  minimumDeposit ) ;\n        balanceOf[msg.sender] += depositAmount;\n\n    }\n\n    function getBalance() public view returns(uint256  _balance ) {\n        _balance = balanceOf[msg.sender];\n    }\n\n    function getCounter () public view returns(uint256  _balance ) {\n        _balance = counter;\n    }\n\n    function addCount(uint256 _count) public {\n        counter += _count;\n\n    }\n\n    function withdrawToken(uint256 withdrawAmmount) public {\n        \n        \n        require(counter > 10);\n        require((balanceOf[msg.sender]- withdrawAmmount) > 0 );\n        balanceOf[msg.sender] -= withdrawAmmount ;\n    }\n\n\n    constructor () public {\n        balanceOf[msg.sender] = 0;\n\n    }\n\n}\n",
  "sourcePath": "/Users/RichardMatthew/Documents/JOB/solidity-example/contracts/Election.sol",
  "compiler": {
    "name": "solc",
    "version": "0.4.26+commit.4563c3fc.Emscripten.clang"
  },
  "schemaVersion": "2.0.3",
  "updatedAt": "2021-03-14T23:26:42.646Z"
}