{
  "contractName": "SupplyChain",
  "abi": [
    {
      "constant": true,
      "inputs": [],
      "name": "counter",
      "outputs": [
        {
          "name": "",
          "type": "uint256"
        }
      ],
      "payable": false,
      "stateMutability": "view",
      "type": "function"
    },
    {
      "constant": true,
      "inputs": [
        {
          "name": "",
          "type": "address"
        }
      ],
      "name": "balanceOf",
      "outputs": [
        {
          "name": "",
          "type": "uint256"
        }
      ],
      "payable": false,
      "stateMutability": "view",
      "type": "function"
    },
    {
      "inputs": [],
      "payable": false,
      "stateMutability": "nonpayable",
      "type": "constructor"
    },
    {
      "constant": false,
      "inputs": [
        {
          "name": "depositAmount",
          "type": "uint256"
        }
      ],
      "name": "depositToken",
      "outputs": [],
      "payable": false,
      "stateMutability": "nonpayable",
      "type": "function"
    },
    {
      "constant": true,
      "inputs": [
        {
          "name": "account",
          "type": "address"
        }
      ],
      "name": "getBalance",
      "outputs": [
        {
          "name": "_balance",
          "type": "uint256"
        }
      ],
      "payable": false,
      "stateMutability": "view",
      "type": "function"
    },
    {
      "constant": true,
      "inputs": [],
      "name": "getCounter",
      "outputs": [
        {
          "name": "_balance",
          "type": "uint256"
        }
      ],
      "payable": false,
      "stateMutability": "view",
      "type": "function"
    },
    {
      "constant": false,
      "inputs": [
        {
          "name": "_count",
          "type": "uint256"
        }
      ],
      "name": "addCount",
      "outputs": [],
      "payable": false,
      "stateMutability": "nonpayable",
      "type": "function"
    },
    {
      "constant": false,
      "inputs": [
        {
          "name": "withdrawAmmount",
          "type": "uint256"
        }
      ],
      "name": "withdrawToken",
      "outputs": [],
      "payable": false,
      "stateMutability": "nonpayable",
      "type": "function"
    }
  ],
  "bytecode": "0x608060405234801561001057600080fd5b5060008060003373ffffffffffffffffffffffffffffffffffffffff1673ffffffffffffffffffffffffffffffffffffffff168152602001908152602001600020819055506103d6806100646000396000f300608060405260043610610083576000357c0100000000000000000000000000000000000000000000000000000000900463ffffffff16806311b94fd51461008857806350baa622146100b557806361bc221a146100e25780636215be771461010d57806370a082311461013a5780638ada066e14610191578063f8b2cb4f146101bc575b600080fd5b34801561009457600080fd5b506100b360048036038101908080359060200190929190505050610213565b005b3480156100c157600080fd5b506100e060048036038101908080359060200190929190505050610226565b005b3480156100ee57600080fd5b506100f76102d5565b6040518082815260200191505060405180910390f35b34801561011957600080fd5b50610138600480360381019080803590602001909291905050506102db565b005b34801561014657600080fd5b5061017b600480360381019080803573ffffffffffffffffffffffffffffffffffffffff169060200190929190505050610340565b6040518082815260200191505060405180910390f35b34801561019d57600080fd5b506101a6610358565b6040518082815260200191505060405180910390f35b3480156101c857600080fd5b506101fd600480360381019080803573ffffffffffffffffffffffffffffffffffffffff169060200190929190505050610362565b6040518082815260200191505060405180910390f35b8060016000828254019250508190555050565b600a60015411151561023757600080fd5b6000816000803373ffffffffffffffffffffffffffffffffffffffff1673ffffffffffffffffffffffffffffffffffffffff168152602001908152602001600020540311151561028657600080fd5b806000803373ffffffffffffffffffffffffffffffffffffffff1673ffffffffffffffffffffffffffffffffffffffff1681526020019081526020016000206000828254039250508190555050565b60015481565b6000600190508082101515156102f057600080fd5b816000803373ffffffffffffffffffffffffffffffffffffffff1673ffffffffffffffffffffffffffffffffffffffff168152602001908152602001600020600082825401925050819055505050565b60006020528060005260406000206000915090505481565b6000600154905090565b60008060008373ffffffffffffffffffffffffffffffffffffffff1673ffffffffffffffffffffffffffffffffffffffff1681526020019081526020016000205490509190505600a165627a7a72305820499703dda036209dbc948021b4054b430a7db4103f00a1d53d4e24872fbbcfbf0029",
  "source": "pragma solidity >=0.4.20;\n\ncontract SupplyChain {\n    // Model a Candidate\n    // 0.1 equal to 1 in data\n    \n\n    /* This creates an array with all balances */\n    mapping (address => uint256) public balanceOf;\n    uint256 public counter;\n\n    function depositToken(uint256 depositAmount) public {\n        uint256 minimumDeposit = 1;\n        require(depositAmount >=  minimumDeposit ) ;\n        balanceOf[msg.sender] += depositAmount;\n\n    }\n\n    function getBalance(address account) public view returns(uint256  _balance ) {\n        _balance = balanceOf[account];\n    }\n\n    function getCounter () public view returns(uint256  _balance ) {\n        _balance = counter;\n    }\n\n    function addCount(uint256 _count) public {\n        counter += _count;\n\n    }\n\n    function withdrawToken(uint256 withdrawAmmount) public {\n        \n        \n        require(counter > 10);\n        require((balanceOf[msg.sender]- withdrawAmmount) > 0 );\n        balanceOf[msg.sender] -= withdrawAmmount ;\n    }\n\n\n    constructor () public {\n        balanceOf[msg.sender] = 0;\n\n    }\n\n}\n",
  "sourcePath": "/Users/RichardMatthew/Documents/JOB/solidity-example/contracts/Election.sol",
  "compiler": {
    "name": "solc",
    "version": "0.4.26+commit.4563c3fc.Emscripten.clang"
  },
  "schemaVersion": "2.0.3",
  "updatedAt": "2021-03-15T00:02:54.846Z"
}