{
  "contractName": "SupplyChain",
  "abi": [
    {
      "constant": true,
      "inputs": [
        {
          "name": "",
          "type": "uint256"
        }
      ],
      "name": "companies",
      "outputs": [
        {
          "name": "id",
          "type": "uint256"
        },
        {
          "name": "addressCompany",
          "type": "address"
        },
        {
          "name": "name",
          "type": "string"
        }
      ],
      "payable": false,
      "stateMutability": "view",
      "type": "function"
    },
    {
      "constant": true,
      "inputs": [],
      "name": "itemCount",
      "outputs": [
        {
          "name": "",
          "type": "uint256"
        }
      ],
      "payable": false,
      "stateMutability": "view",
      "type": "function"
    },
    {
      "constant": true,
      "inputs": [
        {
          "name": "",
          "type": "address"
        }
      ],
      "name": "balanceOf",
      "outputs": [
        {
          "name": "",
          "type": "uint256"
        }
      ],
      "payable": false,
      "stateMutability": "view",
      "type": "function"
    },
    {
      "constant": true,
      "inputs": [],
      "name": "companyCount",
      "outputs": [
        {
          "name": "",
          "type": "uint256"
        }
      ],
      "payable": false,
      "stateMutability": "view",
      "type": "function"
    },
    {
      "constant": true,
      "inputs": [
        {
          "name": "",
          "type": "uint256"
        }
      ],
      "name": "transfers",
      "outputs": [
        {
          "name": "id",
          "type": "uint256"
        },
        {
          "name": "itemId",
          "type": "uint256"
        },
        {
          "name": "senderId",
          "type": "address"
        },
        {
          "name": "receiverId",
          "type": "address"
        },
        {
          "name": "isConfirmed",
          "type": "bool"
        }
      ],
      "payable": false,
      "stateMutability": "view",
      "type": "function"
    },
    {
      "constant": true,
      "inputs": [
        {
          "name": "",
          "type": "uint256"
        }
      ],
      "name": "itemType",
      "outputs": [
        {
          "name": "",
          "type": "string"
        }
      ],
      "payable": false,
      "stateMutability": "view",
      "type": "function"
    },
    {
      "constant": true,
      "inputs": [
        {
          "name": "",
          "type": "uint256"
        }
      ],
      "name": "items",
      "outputs": [
        {
          "name": "id",
          "type": "uint256"
        },
        {
          "name": "itemTypeId",
          "type": "uint256"
        },
        {
          "name": "userId",
          "type": "address"
        },
        {
          "name": "timestamp",
          "type": "uint256"
        },
        {
          "name": "isUsed",
          "type": "bool"
        }
      ],
      "payable": false,
      "stateMutability": "view",
      "type": "function"
    },
    {
      "constant": true,
      "inputs": [],
      "name": "itemTypeCount",
      "outputs": [
        {
          "name": "",
          "type": "uint256"
        }
      ],
      "payable": false,
      "stateMutability": "view",
      "type": "function"
    },
    {
      "constant": true,
      "inputs": [],
      "name": "transferCount",
      "outputs": [
        {
          "name": "",
          "type": "uint256"
        }
      ],
      "payable": false,
      "stateMutability": "view",
      "type": "function"
    },
    {
      "inputs": [],
      "payable": false,
      "stateMutability": "nonpayable",
      "type": "constructor"
    },
    {
      "anonymous": false,
      "inputs": [
        {
          "indexed": true,
          "name": "_candidateId",
          "type": "uint256"
        }
      ],
      "name": "votedEvent",
      "type": "event"
    },
    {
      "constant": false,
      "inputs": [
        {
          "name": "initialSupply",
          "type": "uint256"
        }
      ],
      "name": "MyToken",
      "outputs": [],
      "payable": false,
      "stateMutability": "nonpayable",
      "type": "function"
    },
    {
      "constant": false,
      "inputs": [
        {
          "name": "depositAmount",
          "type": "uint256"
        }
      ],
      "name": "depositToken",
      "outputs": [],
      "payable": false,
      "stateMutability": "nonpayable",
      "type": "function"
    },
    {
      "constant": true,
      "inputs": [],
      "name": "getBalance",
      "outputs": [
        {
          "name": "_balance",
          "type": "uint256"
        }
      ],
      "payable": false,
      "stateMutability": "view",
      "type": "function"
    },
    {
      "constant": true,
      "inputs": [],
      "name": "getCounter",
      "outputs": [
        {
          "name": "_balance",
          "type": "uint256"
        }
      ],
      "payable": false,
      "stateMutability": "view",
      "type": "function"
    },
    {
      "constant": false,
      "inputs": [
        {
          "name": "_count",
          "type": "uint256"
        }
      ],
      "name": "addCount",
      "outputs": [],
      "payable": false,
      "stateMutability": "nonpayable",
      "type": "function"
    },
    {
      "constant": false,
      "inputs": [
        {
          "name": "withdrawAmmount",
          "type": "uint256"
        }
      ],
      "name": "withdrawToken",
      "outputs": [],
      "payable": false,
      "stateMutability": "nonpayable",
      "type": "function"
    },
    {
      "constant": false,
      "inputs": [
        {
          "name": "itemTypeId",
          "type": "uint256"
        },
        {
          "name": "_stock",
          "type": "int256"
        }
      ],
      "name": "addItem",
      "outputs": [],
      "payable": false,
      "stateMutability": "nonpayable",
      "type": "function"
    },
    {
      "constant": false,
      "inputs": [
        {
          "name": "itemTypeId",
          "type": "uint256[]"
        },
        {
          "name": "recipe",
          "type": "uint256[]"
        }
      ],
      "name": "createItem",
      "outputs": [],
      "payable": false,
      "stateMutability": "nonpayable",
      "type": "function"
    },
    {
      "constant": false,
      "inputs": [
        {
          "name": "_receiverId",
          "type": "address"
        },
        {
          "name": "_item",
          "type": "uint256"
        }
      ],
      "name": "sendItem",
      "outputs": [],
      "payable": false,
      "stateMutability": "nonpayable",
      "type": "function"
    },
    {
      "constant": false,
      "inputs": [
        {
          "name": "transferId",
          "type": "uint256"
        }
      ],
      "name": "receiveItem",
      "outputs": [],
      "payable": false,
      "stateMutability": "nonpayable",
      "type": "function"
    },
    {
      "constant": true,
      "inputs": [
        {
          "name": "_item",
          "type": "uint256"
        }
      ],
      "name": "getItemNames",
      "outputs": [
        {
          "name": "_name",
          "type": "string"
        }
      ],
      "payable": false,
      "stateMutability": "view",
      "type": "function"
    },
    {
      "constant": false,
      "inputs": [
        {
          "name": "_item",
          "type": "uint256"
        }
      ],
      "name": "traceProduct",
      "outputs": [
        {
          "name": "_recipe",
          "type": "uint256[]"
        },
        {
          "name": "_usedBy",
          "type": "uint256[]"
        }
      ],
      "payable": false,
      "stateMutability": "nonpayable",
      "type": "function"
    },
    {
      "constant": false,
      "inputs": [
        {
          "name": "name",
          "type": "string"
        }
      ],
      "name": "addNewType",
      "outputs": [],
      "payable": false,
      "stateMutability": "nonpayable",
      "type": "function"
    },
    {
      "constant": true,
      "inputs": [],
      "name": "getItemCount",
      "outputs": [
        {
          "name": "_itemCount",
          "type": "uint256"
        }
      ],
      "payable": false,
      "stateMutability": "view",
      "type": "function"
    }
  ],
  "bytecode": "0x608060405234801561001057600080fd5b5060008060003373ffffffffffffffffffffffffffffffffffffffff1673ffffffffffffffffffffffffffffffffffffffff16815260200190815260200160002081905550611c9b806100646000396000f300608060405260043610610133576000357c0100000000000000000000000000000000000000000000000000000000900463ffffffff16806311b94fd51461013857806312065fe014610165578063268c876d146101905780632813d19d146101f957806350baa622146102d95780636215be77146103065780636bfb0d011461033357806370a082311461035e5780637207c19f146103b557806376987ce6146103e25780637749cf231461041957806386a8ae68146104445780638ada066e146104ed5780638e75dd47146105185780639377d71114610543578063a26be999146105fc578063ac09aa0f14610629578063b80d32d9146106cf578063bfb231d21461071c578063d1a5d42d146107a9578063d2136c49146107d4578063e3d33fc91461089e578063f13b2124146108c9575b600080fd5b34801561014457600080fd5b506101636004803603810190808035906020019092919050505061096f565b005b34801561017157600080fd5b5061017a610982565b6040518082815260200191505060405180910390f35b34801561019c57600080fd5b506101f7600480360381019080803590602001908201803590602001908080601f01602080910402602001604051908101604052809392919081815260200183838082843782019150505050505091929192905050506109c8565b005b34801561020557600080fd5b5061022460048036038101908080359060200190929190505050610a07565b604051808481526020018373ffffffffffffffffffffffffffffffffffffffff1673ffffffffffffffffffffffffffffffffffffffff16815260200180602001828103825283818151815260200191508051906020019080838360005b8381101561029c578082015181840152602081019050610281565b50505050905090810190601f1680156102c95780820380516001836020036101000a031916815260200191505b5094505050505060405180910390f35b3480156102e557600080fd5b5061030460048036038101908080359060200190929190505050610ae9565b005b34801561031257600080fd5b5061033160048036038101908080359060200190929190505050610b98565b005b34801561033f57600080fd5b50610348610bfd565b6040518082815260200191505060405180910390f35b34801561036a57600080fd5b5061039f600480360381019080803573ffffffffffffffffffffffffffffffffffffffff169060200190929190505050610c03565b6040518082815260200191505060405180910390f35b3480156103c157600080fd5b506103e060048036038101908080359060200190929190505050610c1b565b005b3480156103ee57600080fd5b506104176004803603810190808035906020019092919080359060200190929190505050610c61565b005b34801561042557600080fd5b5061042e610df2565b6040518082815260200191505060405180910390f35b34801561045057600080fd5b506104eb6004803603810190808035906020019082018035906020019080806020026020016040519081016040528093929190818152602001838360200280828437820191505050505050919291929080359060200190820180359060200190808060200260200160405190810160405280939291908181526020018383602002808284378201915050505050509192919290505050610dfc565b005b3480156104f957600080fd5b50610502611169565b6040518082815260200191505060405180910390f35b34801561052457600080fd5b5061052d611173565b6040518082815260200191505060405180910390f35b34801561054f57600080fd5b5061056e60048036038101908080359060200190929190505050611179565b604051808681526020018581526020018473ffffffffffffffffffffffffffffffffffffffff1673ffffffffffffffffffffffffffffffffffffffff1681526020018373ffffffffffffffffffffffffffffffffffffffff1673ffffffffffffffffffffffffffffffffffffffff168152602001821515151581526020019550505050505060405180910390f35b34801561060857600080fd5b50610627600480360381019080803590602001909291905050506111fc565b005b34801561063557600080fd5b50610654600480360381019080803590602001909291905050506115e9565b6040518080602001828103825283818151815260200191508051906020019080838360005b83811015610694578082015181840152602081019050610679565b50505050905090810190601f1680156106c15780820380516001836020036101000a031916815260200191505b509250505060405180910390f35b3480156106db57600080fd5b5061071a600480360381019080803573ffffffffffffffffffffffffffffffffffffffff16906020019092919080359060200190929190505050611699565b005b34801561072857600080fd5b50610747600480360381019080803590602001909291905050506118b0565b604051808681526020018581526020018473ffffffffffffffffffffffffffffffffffffffff1673ffffffffffffffffffffffffffffffffffffffff168152602001838152602001821515151581526020019550505050505060405180910390f35b3480156107b557600080fd5b506107be611913565b6040518082815260200191505060405180910390f35b3480156107e057600080fd5b506107ff60048036038101908080359060200190929190505050611919565b604051808060200180602001838103835285818151815260200191508051906020019060200280838360005b8381101561084657808201518184015260208101905061082b565b50505050905001838103825284818151815260200191508051906020019060200280838360005b8381101561088857808201518184015260208101905061086d565b5050505090500194505050505060405180910390f35b3480156108aa57600080fd5b506108b3611a1d565b6040518082815260200191505060405180910390f35b3480156108d557600080fd5b506108f460048036038101908080359060200190929190505050611a23565b6040518080602001828103825283818151815260200191508051906020019080838360005b83811015610934578082015181840152602081019050610919565b50505050905090810190601f1680156109615780820380516001836020036101000a031916815260200191505b509250505060405180910390f35b8060016000828254019250508190555050565b60008060003373ffffffffffffffffffffffffffffffffffffffff1673ffffffffffffffffffffffffffffffffffffffff16815260200190815260200160002054905090565b600a600081548092919060010191905055508060096000600a5481526020019081526020016000209080519060200190610a03929190611b1f565b5050565b60036020528060005260406000206000915090508060000154908060010160009054906101000a900473ffffffffffffffffffffffffffffffffffffffff1690806002018054600181600116156101000203166002900480601f016020809104026020016040519081016040528092919081815260200182805460018160011615610100020316600290048015610adf5780601f10610ab457610100808354040283529160200191610adf565b820191906000526020600020905b815481529060010190602001808311610ac257829003601f168201915b5050505050905083565b600a600154111515610afa57600080fd5b6000816000803373ffffffffffffffffffffffffffffffffffffffff1673ffffffffffffffffffffffffffffffffffffffff1681526020019081526020016000205403111515610b4957600080fd5b806000803373ffffffffffffffffffffffffffffffffffffffff1673ffffffffffffffffffffffffffffffffffffffff1681526020019081526020016000206000828254039250508190555050565b600060019050808210151515610bad57600080fd5b816000803373ffffffffffffffffffffffffffffffffffffffff1673ffffffffffffffffffffffffffffffffffffffff168152602001908152602001600020600082825401925050819055505050565b60055481565b60006020528060005260406000206000915090505481565b806000803373ffffffffffffffffffffffffffffffffffffffff1673ffffffffffffffffffffffffffffffffffffffff1681526020019081526020016000208190555050565b606080600080429150600090505b84811215610dbc5760056000815480929190600101919050555060e06040519081016040528060055481526020018781526020013373ffffffffffffffffffffffffffffffffffffffff16815260200185815260200184815260200183815260200160001515815250600260006005548152602001908152602001600020600082015181600001556020820151816001015560408201518160020160006101000a81548173ffffffffffffffffffffffffffffffffffffffff021916908373ffffffffffffffffffffffffffffffffffffffff1602179055506060820151816003019080519060200190610d64929190611b9f565b506080820151816004019080519060200190610d81929190611b9f565b5060a0820151816005015560c08201518160060160006101000a81548160ff0219169083151502179055509050508080600101915050610c6f565b60007ffff3c900d938d21d0990d786e819f29b8d05c1ef587b462b939609625b684b1660405160405180910390a2505050505050565b6000600554905090565b600080600080606060006001955060009450600093505b8651841015610ef657858015610ea157503373ffffffffffffffffffffffffffffffffffffffff16600260008987815181101515610e4d57fe5b90602001906020020151815260200190815260200160002060020160009054906101000a900473ffffffffffffffffffffffffffffffffffffffff1673ffffffffffffffffffffffffffffffffffffffff16145b9550848015610ee75750600260008886815181101515610ebd57fe5b90602001906020020151815260200190815260200160002060060160009054906101000a900460ff165b94508380600101945050610e13565b858015610f01575084155b1515610f0c57600080fd5b600092505b87518310156111315760056000815480929190600101919050555060e06040519081016040528060055481526020018985815181101515610f4e57fe5b9060200190602002015181526020013373ffffffffffffffffffffffffffffffffffffffff16815260200188815260200183815260200142815260200160001515815250600260006005548152602001908152602001600020600082015181600001556020820151816001015560408201518160020160006101000a81548173ffffffffffffffffffffffffffffffffffffffff021916908373ffffffffffffffffffffffffffffffffffffffff160217905550606082015181600301908051906020019061101e929190611b9f565b50608082015181600401908051906020019061103b929190611b9f565b5060a0820151816005015560c08201518160060160006101000a81548160ff021916908315150217905550905050600190505b86518111151561112457600160026000898481518110151561108c57fe5b90602001906020020151815260200190815260200160002060060160006101000a81548160ff0219169083151502179055506002600088838151811015156110d057fe5b9060200190602002015181526020019081526020016000206004016005549080600181540180825580915050906001820390600052602060002001600090919290919091505550808060010191505061106e565b8280600101935050610f11565b60007ffff3c900d938d21d0990d786e819f29b8d05c1ef587b462b939609625b684b1660405160405180910390a25050505050505050565b6000600154905090565b60065481565b60046020528060005260406000206000915090508060000154908060010154908060020160009054906101000a900473ffffffffffffffffffffffffffffffffffffffff16908060030160009054906101000a900473ffffffffffffffffffffffffffffffffffffffff16908060030160149054906101000a900460ff16905085565b611204611bec565b6060806004600085815260200190815260200160002060a0604051908101604052908160008201548152602001600182015481526020016002820160009054906101000a900473ffffffffffffffffffffffffffffffffffffffff1673ffffffffffffffffffffffffffffffffffffffff1673ffffffffffffffffffffffffffffffffffffffff1681526020016003820160009054906101000a900473ffffffffffffffffffffffffffffffffffffffff1673ffffffffffffffffffffffffffffffffffffffff1673ffffffffffffffffffffffffffffffffffffffff1681526020016003820160149054906101000a900460ff1615151515815250509250826060015173ffffffffffffffffffffffffffffffffffffffff163373ffffffffffffffffffffffffffffffffffffffff1614151561134157600080fd5b600260008460200151815260200190815260200160002060060160009054906101000a900460ff1615151561137557600080fd5b60056000815480929190600101919050555060e060405190810160405280600554815260200160026000866020015181526020019081526020016000206001015481526020013373ffffffffffffffffffffffffffffffffffffffff16815260200183815260200182815260200142815260200160001515815250600260006005548152602001908152602001600020600082015181600001556020820151816001015560408201518160020160006101000a81548173ffffffffffffffffffffffffffffffffffffffff021916908373ffffffffffffffffffffffffffffffffffffffff160217905550606082015181600301908051906020019061147c929190611b9f565b506080820151816004019080519060200190611499929190611b9f565b5060a0820151816005015560c08201518160060160006101000a81548160ff02191690831515021790555090505060026000600554815260200190815260200160002060030183602001519080600181540180825580915050906001820390600052602060002001600090919290919091505550600260008460200151815260200190815260200160002060040160055490806001815401808255809150509060018203906000526020600020016000909192909190915055506001600260008560200151815260200190815260200160002060060160006101000a81548160ff02191690831515021790555060016004600086815260200190815260200160002060030160146101000a81548160ff02191690831515021790555060007ffff3c900d938d21d0990d786e819f29b8d05c1ef587b462b939609625b684b1660405160405180910390a250505050565b60096020528060005260406000206000915090508054600181600116156101000203166002900480601f0160208091040260200160405190810160405280929190818152602001828054600181600116156101000203166002900480156116915780601f1061166657610100808354040283529160200191611691565b820191906000526020600020905b81548152906001019060200180831161167457829003601f168201915b505050505081565b6002600082815260200190815260200160002060020160009054906101000a900473ffffffffffffffffffffffffffffffffffffffff1673ffffffffffffffffffffffffffffffffffffffff163373ffffffffffffffffffffffffffffffffffffffff1614151561170957600080fd5b6002600082815260200190815260200160002060060160009054906101000a900460ff1615151561173957600080fd5b60076000815480929190600101919050555060a06040519081016040528060075481526020018281526020013373ffffffffffffffffffffffffffffffffffffffff1681526020018373ffffffffffffffffffffffffffffffffffffffff16815260200160001515815250600460006007548152602001908152602001600020600082015181600001556020820151816001015560408201518160020160006101000a81548173ffffffffffffffffffffffffffffffffffffffff021916908373ffffffffffffffffffffffffffffffffffffffff16021790555060608201518160030160006101000a81548173ffffffffffffffffffffffffffffffffffffffff021916908373ffffffffffffffffffffffffffffffffffffffff16021790555060808201518160030160146101000a81548160ff02191690831515021790555090505060007ffff3c900d938d21d0990d786e819f29b8d05c1ef587b462b939609625b684b1660405160405180910390a25050565b60026020528060005260406000206000915090508060000154908060010154908060020160009054906101000a900473ffffffffffffffffffffffffffffffffffffffff16908060050154908060060160009054906101000a900460ff16905085565b600a5481565b6060806002600084815260200190815260200160002060030180548060200260200160405190810160405280929190818152602001828054801561197c57602002820191906000526020600020905b815481526020019060010190808311611968575b50505050509150600260008481526020019081526020016000206004018054806020026020016040519081016040528092919081815260200182805480156119e357602002820191906000526020600020905b8154815260200190600101908083116119cf575b5050505050905060007ffff3c900d938d21d0990d786e819f29b8d05c1ef587b462b939609625b684b1660405160405180910390a2915091565b60075481565b60606000821415611a6b576040805190810160405280600781526020017f6e6f7468696e67000000000000000000000000000000000000000000000000008152509050611b1a565b600960008381526020019081526020016000208054600181600116156101000203166002900480601f016020809104026020016040519081016040528092919081815260200182805460018160011615610100020316600290048015611b125780601f10611ae757610100808354040283529160200191611b12565b820191906000526020600020905b815481529060010190602001808311611af557829003601f168201915b505050505090505b919050565b828054600181600116156101000203166002900490600052602060002090601f016020900481019282601f10611b6057805160ff1916838001178555611b8e565b82800160010185558215611b8e579182015b82811115611b8d578251825591602001919060010190611b72565b5b509050611b9b9190611c4a565b5090565b828054828255906000526020600020908101928215611bdb579160200282015b82811115611bda578251825591602001919060010190611bbf565b5b509050611be89190611c4a565b5090565b60a0604051908101604052806000815260200160008152602001600073ffffffffffffffffffffffffffffffffffffffff168152602001600073ffffffffffffffffffffffffffffffffffffffff1681526020016000151581525090565b611c6c91905b80821115611c68576000816000905550600101611c50565b5090565b905600a165627a7a72305820d43bad159861ec0c39beba2874cba12d210f4df62bcc859ab2d78e070a9eab050029",
  "source": "pragma solidity >=0.4.20;\n\ncontract SupplyChain {\n    // Model a Candidate\n    // 0.1 equal to 1 in data\n    \n\n    /* This creates an array with all balances */\n    mapping (address => uint256) public balanceOf;\n    uint256 counter;\n    /* Initializes contract with initial supply tokens to the creator of the contract */\n    function MyToken(\n        uint256 initialSupply\n        ) public {\n        balanceOf[msg.sender] = initialSupply;              // Give the creator all initial tokens\n    }\n\n\n    function depositToken(uint256 depositAmount) public {\n        uint256 minimumDeposit = 1;\n        require(depositAmount >=  minimumDeposit ) ;\n        balanceOf[msg.sender] += depositAmount;\n\n    }\n\n    function getBalance() public view returns(uint256  _balance ) {\n        _balance = balanceOf[msg.sender];\n    }\n\n    function getCounter () public view returns(uint256  _balance ) {\n        _balance = counter;\n    }\n\n    function addCount(uint256 _count) public {\n        counter += _count;\n\n    }\n\n    function withdrawToken(uint256 withdrawAmmount) public {\n        \n        \n        require(counter > 10);\n        require((balanceOf[msg.sender]- withdrawAmmount) > 0 );\n        balanceOf[msg.sender] -= withdrawAmmount ;\n    }\n\n\n    constructor () public {\n        balanceOf[msg.sender] = 0;\n\n    }\n\n    struct Company {\n        uint id;\n        address addressCompany;\n        string name;\n    }\n\n    struct Item{\n        uint id;\n        uint itemTypeId;\n        address userId;\n        uint[] recipe;\n        uint [] usedBy;\n        uint timestamp;\n        bool isUsed;\n\n    }\n\n    struct Transfer{\n        uint id;\n        uint itemId;\n        address senderId;\n        address receiverId;\n        bool isConfirmed;\n\n    }\n\n    event votedEvent (\n        uint indexed _candidateId\n    );\n\n    mapping(uint => Item) public items;\n    mapping(uint => Company) public companies;\n    mapping(uint => Transfer) public transfers;\n    uint public itemCount;\n    uint public companyCount;\n    uint public transferCount;\n    uint [][] companyStock; //indeks pertama id company, indeks kedua id itemType\n    \n    mapping(uint => string ) public itemType;\n    uint public itemTypeCount;\n\n\n\n    // buat item yang awal, tanpa recipe\n    function addItem ( uint  itemTypeId, int _stock \n                        ) public {\n        uint[] memory recipe;\n        uint[] memory usedBy;\n        uint timestamp = block.timestamp;\n        for (int i= 0;i< _stock; i++){\n            itemCount++;\n            items[itemCount] = Item(itemCount, itemTypeId, msg.sender, recipe, usedBy , timestamp, false);\n        }\n\n                            \n    \n       emit votedEvent(0);\n    }\n\n    function createItem ( uint [] memory itemTypeId ,uint [] memory recipe\n                        ) public {\n\n        bool isValid = true;  \n        bool _isUsed = false;                 \n        for(uint i=0 ; i< recipe.length ; i++){\n            isValid = isValid && (items[recipe[i]].userId == msg.sender);\n            _isUsed = _isUsed && (items[recipe[i]].isUsed);\n\n        }\n\n        require(isValid && !(_isUsed));   \n\n        for(uint j=0 ; j< itemTypeId.length ; j++){\n            itemCount++;\n            uint [] memory usedBy;\n            items[itemCount] = Item(itemCount, itemTypeId[j], msg.sender, recipe , usedBy , block.timestamp, false);\n            for(uint k=1; k<= recipe.length;k++){\n                items[recipe[k]].isUsed = true;\n                items[recipe[k]].usedBy.push(itemCount);\n            }\n        }\n        emit votedEvent(0);\n    }\n\n    function sendItem(address _receiverId, uint _item) public {\n\n        require(msg.sender == items[_item].userId);\n        require( !(items[_item].isUsed));\n\n        transferCount++;\n        transfers[transferCount] = Transfer(transferCount,_item, msg.sender, _receiverId, false);\n        emit votedEvent(0);\n    }\n\n\n    function receiveItem(uint transferId) public {\n        \n        Transfer memory temp = transfers[transferId];\n\n        require(msg.sender == temp.receiverId);\n        require( !(items[temp.itemId].isUsed));\n\n        uint[] memory recipe;\n        uint[] memory usedBy;\n        \n        itemCount++;\n        items[itemCount] = Item(itemCount, items[temp.itemId].itemTypeId, msg.sender, recipe,  usedBy , block.timestamp, false);\n        items[itemCount].recipe.push(temp.itemId);\n\n        items[temp.itemId].usedBy.push(itemCount);\n        items[temp.itemId].isUsed = true;\n\n        transfers[transferId].isConfirmed = true;\n\n        emit votedEvent(0);\n    }\n\n\n    function getItemNames(uint _item) public view returns(string memory _name )  {\n\n        if (_item == 0) {\n            _name = \"nothing\";\n\n        } else {\n            _name =  itemType[_item];\n        }\n        \n    }\n    \n    function traceProduct(uint _item) public  returns( uint [] memory _recipe , uint [] memory _usedBy ) {\n\n        _recipe = items[_item].recipe;\n        _usedBy = items[_item].usedBy;\n        \n        emit votedEvent(0);\n    }\n\n    function addNewType(string memory name) public{\n        itemTypeCount++;\n\n        itemType[itemTypeCount] = name;\n    }\n\n    function getItemCount() public view returns (uint _itemCount){\n        _itemCount = itemCount;\n    }\n \n    \n\n    \n}\n",
  "sourcePath": "/Users/RichardMatthew/Documents/JOB/solidity-example/contracts/Election.sol",
  "compiler": {
    "name": "solc",
    "version": "0.4.26+commit.4563c3fc.Emscripten.clang"
  },
  "schemaVersion": "2.0.3",
  "updatedAt": "2021-03-14T22:53:47.162Z"
}